:020000040000FA
:100000000C94DA000C9402010C9402010C9402018D
:100010000C9402010C9402010C9402010C94020154
:100020000C9402010C9402010C9402010C94C9106E
:100030000C9402010C9402010C9402010C94020134
:100040000C94600F0C9402010C942E0F0C94080F6A
:100050000C9402010C9402010C9402010C94020114
:100060000C94AA0F0C940201626C6E6B696E6600B0
:1000700076657200312E302E3100682D6265617414
:1000800000343500627566662D696E0032353600C3
:100090006465760041726475696E6F20556E6F00FD
:1000A0006370750041546D65676133323850006389
:1000B0006F6E0053747265616D006275696C6400E7
:1000C0004E6F7620323020323032312032303A32A8
:1000D000303A323600000000000000240027002AD9
:1000E0000000000000250028002B00000000080090
:1000F000020100000304070000000000000000658A
:1001000001650165016501650165016501650165BF
:1001100001650165016501650165016501650165AF
:10012000016501650165016501650165016501659F
:100130000165016501650165016501650165016490
:100140000164016401640164016401640164016487
:100150000164016401640164016401640164016477
:100160000164016401640164016401640164016467
:1001700001640164016401640164016401640100BB
:1001800000000023002600290004040404040404E1
:100190000402020202020203030303030301020436
:1001A00008102040800102040810200102040810F9
:1001B0002000111111241FBECFEFD8E0DEBFCDBF4C
:1001C00011E0A0E0B1E0ECEEF0E302C005900D928A
:1001D000AC39B107D9F723E0ACE9B1E001C01D9219
:1001E000AB35B207E1F710E0CAEDD0E004C02197CB
:1001F000FE010E944D18C93DD107C9F70E949C110C
:100200000C9474180C940000E3E7F2E0A089B18923
:1002100082E08C93A485B5851C92A685B7858FEC6A
:100220008C93108EA489B58986E08C93A289B389BA
:100230008C9180618C93A289B3898C9188608C9316
:10024000A289B3898C9180688C930288F389E02D10
:1002500080818F7D80830895CF92DF92EF92FF920D
:10026000CF93DF93B0912F03A0E08111AB2F80914A
:10027000300390E0880F991FAC0141585E4FC09049
:100280003503D0903603E0903703F090380330E028
:1002900020E0FA01C591D491E881B90190E080E0B5
:1002A000EB23EA130AC02F5F3F4F6C157D058E05C7
:1002B0009F0578F36FEF7FEFCB01DF91CF91FF9038
:1002C000EF90DF90CF9008950895089508950895D0
:1002D000AF92BF92CF92DF92EF92FF920F931F9354
:1002E000CF93DF936C017B018B01040F151FEB0192
:1002F0005E01AE18BF08C017D10759F06991D60149
:10030000ED91FC910190F081E02DC6010995892BBA
:1003100079F7C501DF91CF911F910F91FF90EF9079
:10032000DF90CF90BF90AF900895FC01538D448D26
:10033000252F30E0842F90E0821B930B541710F090
:10034000CF96089501970895FC01918D828D98179D
:1003500061F0A28DAE0FBF2FB11D5D968C91928D75
:100360009F5F9F73928F90E008958FEF9FEF0895A6
:10037000FC01918D828D981731F0828DE80FF11D6F
:10038000858D90E008958FEF9FEF0895FC01918D8A
:10039000228D892F90E0805C9F4F821B91098F7383
:1003A0009927089583E792E00E94C60121E0892BF6
:1003B00009F420E0822F089580E090E0892B29F055
:1003C0000E94D20181110C9400000895FC01A48DBB
:1003D000A80FB92FB11DA35ABF4F2C91848D90E067
:1003E00001968F739927848FA689B7892C93A0894A
:1003F000B1898C91837080648C93938D848D9813D4
:1004000006C00288F389E02D80818F7D8083089566
:10041000EF92FF920F931F93CF93DF93EC0181E054
:10042000888F9B8D8C8D98131AC0E889F9898081FB
:1004300085FF15C09FB7F894EE89FF896083E8892E
:10044000F98980818370806480839FBF81E090E020
:10045000DF91CF911F910F91FF90EF900895F62EAD
:100460000B8D10E00F5F1F4F0F731127E02E8C8D47
:100470008E110CC00FB607FCFACFE889F98980818C
:1004800085FFF5CFCE010E94E601F1CFEB8DEC0F99
:10049000FD2FF11DE35AFF4FF0829FB7F8940B8FA9
:1004A000EA89FB8980818062CFCFCF93DF93EC0113
:1004B000888D8823B9F0AA89BB89E889F9898C914C
:1004C00085FD03C0808186FD0DC00FB607FCF7CF08
:1004D0008C9185FFF2CF808185FFEDCFCE010E9408
:1004E000E601E9CFDF91CF910895833081F028F4C0
:1004F000813099F08230A9F008958730A9F08830D2
:10050000C9F08430B1F4809180008F7D03C0809168
:1005100080008F7780938000089584B58F7784BDA5
:10052000089584B58F7DFBCF8091B0008F77809345
:10053000B00008958091B0008F7DF9CFCF93DF9305
:10054000282F30E0F901E551FF4F8491F901E3567E
:10055000FE4FD491F901E757FE4FC491CC23A1F08F
:1005600081110E947502EC2FF0E0EE0FFF1FE158A1
:10057000FE4FA591B491EC91ED2381E090E009F458
:1005800080E0DF91CF91089580E090E0FACF1F9353
:10059000CF93DF93282F30E0F901E551FF4F84918D
:1005A000F901E356FE4FD491F901E757FE4FC4918C
:1005B000CC23A9F0162F81110E947502EC2FF0E0D8
:1005C000EE0FFF1FEF51FF4FA591B4918FB7F89435
:1005D000EC91111108C0D095DE23DC938FBFDF9121
:1005E000CF911F910895DE2BF8CFCF93DF9390E04A
:1005F000FC01E356FE4F249187579E4FFC018491E6
:100600008823C9F090E0880F991FFC01E952FF4F41
:10061000A591B491FC01EF51FF4FC591D4916111A7
:100620000DC09FB7F8948C91209582238C9388817C
:10063000282328839FBFDF91CF910895623051F422
:100640009FB7F8943C91822F809583238C93E88107
:100650002E2BEFCF8FB7F894EC912E2B2C938FBFCE
:10066000EACF3FB7F8948091570290915802A09139
:100670005902B0915A0226B5A89B05C02F3F19F028
:100680000196A11DB11D3FBFBA2FA92F982F882712
:10069000BC01CD01620F711D811D911D42E0660FED
:1006A000771F881F991F4A95D1F708958F929F92BF
:1006B000AF92BF92CF92DF92EF92FF926B017C01DB
:1006C0000E9431034B015C01C114D104E104F10427
:1006D000B9F00E943103681979098A099B09683EBB
:1006E00073408105910580F321E0C21AD108E10829
:1006F000F10888EE880E83E0981EA11CB11CE4CF9F
:10070000FF90EF90DF90CF90BF90AF909F908F9031
:1007100008952FB7F894609153027091540280911C
:100720005502909156022FBF0895CF92DF92EF921B
:10073000FF920F931F93CF93DF93CDB7DEB7C054D3
:10074000D1400FB6F894DEBF0FBECDBF0E94890323
:10075000009131031091320320913303309134031F
:100760006B017C01C01AD10AE20AF30A97018601E3
:10077000003D17402105310590F480913903C05C9C
:10078000DE4F0FB6F894DEBF0FBECDBFDF91CF9125
:100790001F910F91FF90EF90DF90CF90089560939D
:1007A0003103709332038093330390933403109298
:1007B0002C0310922B0310922A03109229031092FB
:1007C000280362E080912D030E94F50261E070E051
:1007D00080E090E00E94560361E080912D030E942A
:1007E000F50260E080912D030E94C70280912E03E4
:1007F0008551823020F58BE291E10197F1F762E0BB
:1008000080912D030E94F50280913A0390E082309E
:10081000910538F0880F991F880F991F0597019748
:10082000F1F7F89480E00E942C016F3F7F4F8F4FCB
:100830009F4F61F410923903789480E0A0CF64E177
:1008400070E080E090E00E945603D9CF81E00E94E2
:100850002C016F3F7F4F8F4F9F4F61F38E010F5FD2
:100860001F4F6E012FEBC21A2EEFD20A780180E0E3
:100870000E942C01F701608371838283938381E05E
:100880000E942C01F7016483758386839783F8E0C7
:10089000EF0EF11CEC14FD0451F7789430E020E0E9
:1008A000F801C080D180E280F38044815581668167
:1008B0007781FFEFCF16DF06EF06FF0631F04F3FDF
:1008C0008FEF58076807780719F410923903B5CFEE
:1008D000F90183E0F595E7958A95E1F7E85DFC4F2E
:1008E0008081880FC416D506E606F70610F18083CE
:1008F0002F5F3F4F085F1F4F2832310589F6409127
:100900002C032091280380912903280F3327331FBC
:1009100080912A03280F311D80912B03820F932F82
:10092000911D99274817190681F681E080933903B4
:1009300026CF8160DCCF2091E101260F3327331FC2
:1009400021323105ECF420912A02FC0190E080E094
:10095000243069F082E00895A091E1012191AC0179
:100960004F535E4FA40FB52FB11D2C9301968617E0
:1009700098F38091E101680F6093E10180E00895B0
:1009800081E0089510922A0281E08093290210925A
:10099000040261E082E10E94C70261E083E10E94FB
:1009A000C702E9EBF0E080818E7F808380818D7FBC
:1009B000808388E48093B80085E48093BC00089528
:1009C000CF93DF9391E09093C0018823B9F0C09159
:1009D000B800D091BA008091BC008A7B8093BC00A3
:1009E00060E082E10E94C70260E083E10E94C702EA
:1009F0000E94C204D093BA00C093B800DF91CF9197
:100A00000895E091620280916102E81730F4F0E00D
:100A1000E056FE4F808190E008958FEF9FEF08959C
:100A200090916202809161022FEF3FEF981748F496
:100A3000E92FF0E0E056FE4F208130E09F5F909379
:100A40006202C90108958091610290916202891B3E
:100A5000990B0895CF92DF92EF92FF920F931F931D
:100A6000CF93DF937C01CB018A01209130022223B6
:100A700089F0EB016B01C40ED51ECC15DD0569F0C4
:100A80006991D701ED91FC910190F081E02DC701B2
:100A90000995F3CF642F0E949B04C801DF91CF9189
:100AA0001F910F91FF90EF90DF90CF900895CF931B
:100AB000DF931F92CDB7DEB76983209130022223E6
:100AC000F9F020915F02203258F021E030E0FC0183
:100AD0003383228390E080E00F90DF91CF910895DF
:100AE00080916002E82FF0E0EF5CFD4F99819083E8
:100AF0008F5F8093600280935F0281E090E0ECCF93
:100B000061E0CE0101960E949B04F7CFCF92DF9265
:100B1000EF92FF920F931F93CF93DF93FC01C48159
:100B200021E020933002C093510210926002109293
:100B30005F028385682B80E193E00E945705D09186
:100B40005F02D13208F092C00E9431036B017C0138
:100B500080912A02811165C082E080932A0281E09F
:100B6000809329028FEF8093280210922702D0935E
:100B70002602A1E3B2E0E6E0F2E080E0D81385C00F
:100B80001092050280910502CC0FC82BC09305027C
:100B900080910402813009F07CC0109204020E940E
:100BA00031036B017C01809105028093BB00809131
:100BB0002C0290912D02A0912E02B0912F02892B30
:100BC0008A2B8B2B99F00E94310300912C021091FB
:100BD0002D0220912E0230912F026C197D098E0971
:100BE0009F090617170728073907E0F18091BC0015
:100BF00083FDD9CF85EC8093BC000E9431036B014B
:100C00007C0180912A02823009F445C0809128023B
:100C10008F3F61F180912802803241F1809128025A
:100C200025C080912C0290912D02A0912E02B091AE
:100C30002F02892B8A2B8B2B09F48ACF0E94310338
:100C400000912C0210912D0220912E0230912F0242
:100C50006C197D098E099F090617170728073907A0
:100C600008F076CF80912B020E94E004109260027F
:100C700010925F0210923002DF91CF911F910F917D
:100C8000FF90EF90DF90CF9008959D9191938F5FAB
:100C900075CF85EEB0CF80912C0290912D02A0915E
:100CA0002E02B0912F02892B8A2B8B2B09F4A9CF0E
:100CB0000E94310300912C0210912D0220912E02EE
:100CC00030912F026C197D098E099F0906171707AD
:100CD0002807390708F095CFC5CF90E080E0089548
:100CE0008F929F92AF92BF92CF92DF92EF92FF923C
:100CF0000F931F93CF93DF936C017B018B01040F44
:100D0000151F0E9489034B015C01E701C017D10741
:100D1000C8F40E948903681979098A099B09603718
:100D200077418105910570F4D6018D919C91DC018C
:100D3000ED91FC910284F385E02D099597FDE6CFB6
:100D40008993E4CFCE018E199F09DF91CF911F9136
:100D50000F91FF90EF90DF90CF90BF90AF909F905A
:100D60008F90089508956AE070E00E9417187093BC
:100D70009F0160939E0110926E02089560916F0230
:100D800081E0682760936F028DE00E94C70280EDCA
:100D900097E00C94B306CF93C0910101C09300017A
:100DA0008CE00E949E029C0191E02115310509F41E
:100DB00090E090930101C91310C0C0932301232B2D
:100DC00091F480919C0190919D01883C910538F4AB
:100DD000019690939D0180939C01CF91089581E0AD
:100DE00080937002FACF10929D0110929C01109294
:100DF0007002F3CFFC0101900020E9F73197AF01B9
:100E0000481B590BBC018CE193E00C9468018F9254
:100E10009F92AF92BF920F931F93CF93DF93CDB763
:100E2000DEB7A1970FB6F894DEBF0FBECDBF19A2F3
:100E3000423008F44AE08E010F5D1F4F842E912C42
:100E4000B12CA12CA50194010E942B18E62FB90109
:100E5000CA01EA30F4F4E05DD801EE938D01232B52
:100E6000242B252B79F790E080E0109719F0CD0125
:100E70000E94FA06A1960FB6F894DEBF0FBECDBF52
:100E8000DF91CF911F910F91BF90AF909F908F9066
:100E90000895E95CE1CFDC01ED91FC911197309769
:100EA00061F012962D913C911397E217F30728F405
:100EB00001900020E9F7ED93FC9308950F931F93A1
:100EC000CF938C01C62F0E9486056C2F6460C801E9
:100ED0000E9486056C2F6B7FC8010E94860583ECFB
:100EE00090E00197F1F7CF911F910F9108950F9323
:100EF0001F93CF93DF938C01D62FC42F607F642B79
:100F00000E945E0780E1D89FB00111246C2BC801BC
:100F1000DF91CF911F910F910C945E0741E00E94E9
:100F2000770781E090E008954F925F926F927F92F1
:100F30008F929F92AF92BF92CF92DF92EF92FF92E9
:100F40000F931F93CF936B017C01742EAC019B0117
:100F50000E941218882399F082E691E0CF911F91A8
:100F60000F91FF90EF90DF90CF90BF90AF909F9048
:100F70008F907F906F905F904F900C94FA0646018F
:100F80005701E894B7F82FEF3FEF4FE75FE7C50150
:100F9000B4010E94121881110DC02FEF3FEF4FE7EF
:100FA0005FE7C501B4010E94481618161CF486E6D6
:100FB00091E0D4CF2FEF3FEF4FE75FE4C701B601D9
:100FC0000E94A01718161CF48AE691E0C7CF2FEFF5
:100FD0003FEF4FE75FECC701B6010E94481687FD5F
:100FE000F3CF20E030E0A901C701B6010E94481606
:100FF00010E000E087FF0CC041E06DE28CE193E07F
:101000000E947707F7FAF094F7F8F09401E010E007
:10101000C0E060E070E080E09FE37C1641F020E0FB
:1010200030E040E251E40E944D16CF5FF6CFA701B9
:1010300096010E94DC154B015C010E94BF162B013A
:101040003C014AE00E940707080F191FCC23C9F191
:10105000C301B2010E94EE169B01AC01C501B401AF
:101060000E94DB154B015C0141E06EE28CE193E0F4
:101070000E9477070F5F1F4FC15018F120E030E04A
:1010800040E251E4C501B4010E94A5172B013C01C7
:101090000E94BF164B01B12CA12C4AE0C501B4013E
:1010A0000E940707080F191FC501B4010E94EE1620
:1010B0009B01AC01C301B2010E94DB154B015C0135
:1010C000DBCFC801CF911F910F91FF90EF90DF9080
:1010D000CF90BF90AF909F908F907F906F905F90D8
:1010E0004F900895CF93DF93CDB7DEB728970FB613
:1010F000F894DEBF0FBECDBF98E0EAE2F1E0DE017A
:10110000119601900D929A95E1F79091240398170A
:1011100008F48FEF90E0880F991F21E030E02C0F4A
:101120003D1F820F931FFC016081606840E08CE1ED
:1011300093E028960FB6F894DEBF0FBECDBFDF91C7
:10114000CF910C947707FC0180819181009739F051
:10115000228133818217930710F40C94771590E065
:1011600080E0089585ED8093BC0080912C029091E1
:101170002D02A0912E02B0912F020796A11DB11D44
:1011800023E0B695A795979587952A95D1F7209155
:10119000BC0024FD03C010922A02089540912C0245
:1011A00050912D0260912E0270912F02452B462BFB
:1011B000472B69F30097A105B10541F025E32A9576
:1011C000F1F700000197A109B109E1CF80912B024D
:1011D0000C94E0040F931F93CF93DF93EC01FB017A
:1011E00001900020E9F78F01061B170B8A819B8174
:1011F000A801480F591F2C813D812417350768F03D
:1012000028813981A801820F931F0E9453184A81B7
:101210005B81400F511F5B834A83DF91CF911F9108
:101220000F9108950F931F93CF93DF93CDB7DEB740
:1012300062970FB6F894DEBF0FBECDBF8C01CB0115
:101240004AE0BE016F5F7F4F0E949E15BE016F5F37
:101250007F4FC8010E94EA0862960FB6F894DEBF7D
:101260000FBECDBFDF91CF911F910F9108953F9297
:101270004F925F926F927F928F929F92AF92BF92A6
:10128000CF92DF92EF92FF920F931F93CF93DF9352
:10129000CDB7DEB7A3970FB6F894DEBF0FBECDBFB4
:1012A0006C012DB73EB73BA32AA360E070E0CB01F1
:1012B0000E945603D60157968D919C915897B12C58
:1012C000029709F473C356968C9156978F5F569682
:1012D0008C93569754962D913C915597232B19F04A
:1012E000BB24B3945CC38330D8F7ED91FC91828129
:1012F000882309F439C3FE0131964F0140E1442EA1
:10130000512CD601ED91FC9180819181DC01ED9110
:10131000FC910084F185E02D0995181619060CF052
:1013200023C345E050E0BE01695E7F4FF601808136
:1013300091810E947006009721F3059709F04AC039
:10134000888D998D982789279827998F888F0A8D5E
:101350001B8D1027012710271B8F0A8F892BD1F196
:101360008F89811142C00E948903D60116966D9320
:101370007D938D939C93199757962D913C915897F7
:101380004A8D5B8D232B61F5288D398D21303105F8
:1013900039F549305105C1F0483C510519F0443048
:1013A0005105C1F4F60166877787808B918B21E028
:1013B00030E0308F278BC6010E94CF0E60E070E0D6
:1013C000CB010E9456039DCF83E090E058969C93FA
:1013D0008E935797D601ED91FC911282B12CDFC20A
:1013E0004530510509F08DCFF5CFF601808191810F
:1013F0000130F1E01F0740F0D60158961C921E9272
:101400005797FC0112827DCFADB6BEB698012F5F13
:101410003F4F4DB75EB7421B530B0FB6F8945EBFFC
:101420000FBE4DBFADB7BEB711967D01A801BD017E
:101430000E9470068017910709F068C0EA8DFB8D45
:10144000EE0DFF1D10820E948903F60166837783EB
:10145000808791878F89813109F471C248F5863080
:10146000D1F08F3009F488C0823041F5D60157960B
:101470008D919C915897892B71F4E1E0F0E058969A
:10148000FC93EE935797C6010E94CF0E60E070E088
:10149000CB010E945603488D598DF12CE12C08ECAC
:1014A00010E030E020E060E0C6010E94C80D12C0EC
:1014B0008D31E1F258F4843109F45EC0F601108EEA
:1014C000178A0190F081E02D128204C0893241F028
:1014D0008733A1F70FB6F894BEBE0FBEADBE11CFD5
:1014E00084819581892B39F480E490E00E94521424
:1014F000F601958384838A8D9B8D8E0D9F1DFA82C4
:10150000E9829C838B83E816F90630F00FB6F894D5
:10151000BEBE0FBEADBE5ECF40E450E0B701D60107
:1015200014968D919C910E946518D6011496ED91A8
:10153000FC9117AEC4010E944B07D601ED91FC91BE
:101540001197128258961C921E9257970E948903F7
:10155000DC01CB0188589341A109B109F6018287CA
:101560009387A487B58786839783A087B18786876B
:101570009787A08BB18BAECF888D998DD60155966C
:101580009C938E935497EA8DFB8DF9A3E8A33F01BA
:101590006E0C7F1CFD8EEC8E7F8E6E8EE614F70433
:1015A00008F062C1D7010D911C91CE014C960E94AA
:1015B0004B07FC01808191818615970508F054C185
:1015C0008C8D9D8DDC012C91213409F045C0019654
:1015D0000E9477153EE0332E380E06970CF441C07A
:1015E0000637B2E71B0709F43FC108F0C0C2013655
:1015F000F2E71F0709F4A6C2043622E7120709F032
:101600003FC033243A949A8A898A1C8A1B8A5E8A4C
:101610004D8A6CE771E0CE0141960E94EA08632D85
:1016200070E0CE0141960E941209832D0E949E0215
:10163000BC01CE0141960E9412090B891C89015000
:10164000110929893A89F12CE12C50E040E064E14C
:10165000C6010E94C80D08C1CE014C960E94A30885
:10166000382E0637B2E71B0709F421C1C8F401364A
:10167000F2E71F0709F4A7C0043622E7120719F2A0
:1016800000371D4609F464C0D60154964D915C9113
:10169000F12CE12C02E010E030E020E060E0D8CF57
:1016A000043647E7140709F473C0063757E71507F0
:1016B00009F416C10136174739F7CE014C960E943E
:1016C0004B07DC018D919C918615970508F0CCC0E5
:1016D00061E0832D0E94F502CE014C960E94A30882
:1016E0008C0161E0832D0E94F5020115110509F4BA
:1016F00065C00F3F110509F092C061E060C0CE01E6
:101700004C960E94A308F82ECE014C960E944B07DF
:101710000C8D1D8D6EE671E0C8010E945C1860E0C2
:10172000892B79F061E771E0C8010E945C18892B70
:1017300039F065E771E0C8010E945C18892BE9F473
:1017400061E08F2D0E94F502CE014C960E944B075E
:101750008C8D9D8D8615970508F086C0DC012C9137
:10176000213469F601960E9477152EE0F22EF80ECC
:10177000069754F2FF24FA94C7CF69E771E0C801D5
:101780000E945C18892B01F762E0DBCF33243A9486
:10179000CE014C960E944B07FC01808191818615F9
:1017A000970508F061C061E0832D0E94F502CE012B
:1017B0004C960E94A30861E0892B09F460E0832D18
:1017C0000E94C70251C09A8A898A1C8A1B8A5E8A33
:1017D0004D8A6FE771E0CE0141960E94EA08632DC1
:1017E00070E0CE0141960E941209FDE0F31510F45D
:1017F00022EF320E832D8770806480937C0080916D
:101800007A00806480937A0080917A0086FDFCCF14
:101810008091780060917900762F682F0ACFE32DB0
:10182000F0E0E551FF4FE491E33039F148F4E13065
:10183000B9F0E230E9F0003811050CF05ECFBECF10
:10184000E73029F1E83059F1E430A9F780918000C0
:1018500080628093800010938B0000938A0004C004
:1018600084B5806884BD07BDF601158A148A32CE1E
:1018700084B5806284BD08BDF7CF80918000806808
:10188000809380001093890000938800EDCF8091B1
:10189000B00080688093B0000093B300E5CF8091E2
:1018A000B00080628093B0000093B400DDCF398235
:1018B000BFE1B315C8F2E32DF0E0EE0FFF1FE150DA
:1018C000FF4F259134912115310571F2E1E0253664
:1018D0003E0751F2C401F9010995C6CF33243A9469
:1018E000CE014C960E944B072C8D3D8DC9018E195F
:1018F0009F0948A159A1481B590B3A8329835C834E
:101900004B835E834D83398A5FE1531508F4ACCF76
:10191000E32DF0E0EE0FFF1FE15CFE4F25913491C7
:101920002115310509F4A0CF81E02436380709F4E8
:101930009BCFB401CE014196F901099595CF8A8DCF
:101940009B8D8E0D9F1DFA82E9829C838B83E81606
:10195000F90608F0BFCDC4010E944B07D601559689
:101960001C921E925497B6CD0E9489032B013C0114
:10197000F60100811181D8011296BC9012978789D7
:10198000908D8130910509F088C0B1102FC0468636
:101990005786608A718A108E178A12961C92D60119
:1019A00056968C915697815056968C938B2DAAA162
:1019B000BBA10FB6F894BEBF0FBEADBFA3960FB6C6
:1019C000F894DEBF0FBECDBFDF91CF911F910F9175
:1019D000FF90EF90DF90CF90BF90AF909F908F904F
:1019E0007F906F905F904F903F9008958681978190
:1019F000A085B185A3019201281B390B4A0B5B0B13
:101A0000DA01C901893136EF9307A105B10530F03C
:101A1000108E178AD80112961C92E0CC893C9F4AFE
:101A2000A105B10598F4F60182859385A485B58555
:101A3000A3019201281B390B4A0B5B0BDA01C90188
:101A4000893C9F4AA105B10508F44ACCF601868578
:101A50009785A089B189A3019201281B390B4A0BF4
:101A60005B0BDA01C90181379741A105B10508F483
:101A700037CCF12CE12C10E000E030E020E050E029
:101A800040E066E0C6010E94C80DD6011E964D9248
:101A90005D926D927C92519782CF892B09F020CC78
:101AA00086859785A089B189481A590A6A0A7B0AEE
:101AB000BB2079F0F1E74F16F7E15F06610471048E
:101AC00008F40ECCD80112961C92F601108E178ADB
:101AD00085CCF9E84F16F3E15F066104710408F460
:101AE000FFCBD8018D919C91DC01ED91FC9106809A
:101AF000F781E02D099581E0F801828381E090E093
:101B0000D60153969C938E93529712962D913C91A9
:101B1000F90101900020E9F731978F01021B130BA7
:101B2000F12CE12C41E050E06DE1C6010E94C80DAE
:101B3000F60182859385A485B58586879787A08BD6
:101B4000B18BCECB9A8A898A1C8A1B8A5E8A4D8A7F
:101B50006FE771E0CE0141960E94EA086FEF70E0F6
:101B6000CE0141960E94120933243A9441CE0436A4
:101B700047E7140709F40ACE063757E7150709F4B3
:101B8000ADCE0136174709F07FCD33243A9495CD79
:101B90002F923F924F925F927F928F929F92AF923D
:101BA000BF92CF92DF92EF92FF920F931F93CF934A
:101BB000DF9300D000D01F92CDB7DEB77C01762E28
:101BC0006A015901DC01ED91FC918281882309F4BD
:101BD000AFC0862F8D7F09F4DDC0B6E06B1709F426
:101BE000D9C0EDE16E1709F4D5C0D70157968D9194
:101BF0009C91019709F09CC0452B81F4F701C488A2
:101C0000D588C114D10451F482899389019609F4CD
:101C1000A6C0938B828BF701C288D38884EF870D8F
:101C20008930B0F5D7011A964D915D916D917C91F7
:101C30001D9716968D919D910D90BC91A02D8417A6
:101C40009507A607B70710F4DB01CA011C012D0197
:101C5000E2E42E0E311C411C511C0E948903A2019A
:101C60009101261B370B480B590BDA01C901B7FD4F
:101C70007BC0C7010E9437090E948903A20191011C
:101C8000261B370B480B590BDA01C901B7FFF1CFFF
:101C90004801B5E08B0E911CA114B10419F485E044
:101CA000882E912C7982DC24CD24DC24DB82CA822C
:101CB000902F812F9D838C83D701ED91FC918081A2
:101CC0009181DC01ED91FC910280F381E02D45E0F2
:101CD00050E0BE016F5F7F4F099560E070E0CB017F
:101CE0000E945603772009F448C00115110509F434
:101CF00044C0D701ED91FC9180819181DC01ED918F
:101D0000FC910280F381E02DA801B50109950B5FDC
:101D10001F4F60E070E0CB010E94560380169106D1
:101D200079F1F701108E178A0190F081E02D12826F
:101D30000F900F900F900F900F90DF91CF911F9108
:101D40000F91FF90EF90DF90CF90BF90AF909F905A
:101D50008F907F905F904F903F902F90089581E0FB
:101D600090E0938B828B57CFD70156968C9181113F
:101D70008FCFC7010E9437098BCF05E010E0CECF8F
:101D80000E948903D7011A966D937D938D939C933E
:101D90001D97CECFC114D10409F07ACF2FCFCF92A7
:101DA000DF92EF92FF920F931F93CF93DF93CDB704
:101DB000DEB7C55AD1090FB6F894DEBF0FBECDBF4E
:101DC0006C0145E650E060E770E0CE0101960E94AC
:101DD0009515CE018A599F4F7C0105E610E09E01C2
:101DE0002F5F3F4F50E040E061E1C6010E94C80D07
:101DF000CB55DF4F0FB6F894DEBF0FBECDBFDF91DE
:101E0000CF911F910F91FF90EF90DF90CF900895A9
:101E10001F920F920FB60F9211242F933F934F935F
:101E20005F936F937F938F939F93AF93BF93EF9342
:101E3000FF9383E792E00E94E601FF91EF91BF914B
:101E4000AF919F918F917F916F915F914F913F9152
:101E50002F910F900FBE0F901F9018951F920F9209
:101E60000FB60F9211242F938F939F93EF93FF93AD
:101E7000E0918302F09184028081E0918902F091E7
:101E80008A0282FD1BC0908180918C028F5F8F73CC
:101E900020918D02821741F0E0918C02F0E0ED5824
:101EA000FD4F958F80938C02FF91EF919F918F91C1
:101EB0002F910F900FBE0F901F9018958081F4CF37
:101EC0001F920F920FB60F9211242F933F938F936F
:101ED0009F93AF93BF938091530290915402A0912E
:101EE0005502B09156023091520223E0230F2D3754
:101EF00058F50196A11DB11D209352028093530203
:101F000090935402A0935502B093560280915702C9
:101F100090915802A0915902B0915A020196A11DC8
:101F2000B11D8093570290935802A0935902B09329
:101F30005A02BF91AF919F918F913F912F910F9036
:101F40000FBE0F901F90189526E8230F0296A11D33
:101F5000B11DD2CF1F920F920FB60F9211242F9363
:101F60003F934F935F936F937F938F939F93AF9321
:101F7000BF93EF93FF938091B900887F803609F477
:101F80004AC0F0F5883209F4A7C018F5803109F489
:101F90009BC0B8F4882309F4F9C0883009F494C0D0
:101FA000FF91EF91BF91AF919F918F917F916F9131
:101FB0005F914F913F912F910F900FBE0F901F9007
:101FC0001895883109F488C0803251F7809328022F
:101FD00014C0803409F49DC040F48033B9F38833D1
:101FE000F9F68093280285ECB0C0803509F485C0ED
:101FF000883509F496C0883499F60E94B208D0CF8B
:10200000883909F48CC038F5883729F050F48836BF
:1020100011F0803729F683E080932A0210920302A0
:1020200057C0883809F47BC0803919F0803809F02E
:10203000B7CF80910302803208F071C0E0910302B3
:1020400081E08E0F809303028091BB00F0E0ED51A0
:10205000FE4F80833DC0803B39F0E0F4803A09F4C4
:1020600079C0883A09F09CCF84E080932A021092CC
:10207000E2011092E101E0915D02F0915E020995AA
:102080008091E10181110FC081E08093E101109204
:10209000C10109C0803C09F4A6CF883C09F4A3CF54
:1020A000883B09F07DCFE091E20181E08E0F8093C3
:1020B000E201F0E0EF53FE4F80818093BB009091EE
:1020C000E2018091E10129C0809105028093BB006B
:1020D00085EC8093BC0064CF90912702809126020A
:1020E000981758F5E091270281E08E0F8093270220
:1020F000F0E0EA5FFD4F8081E9CFE091270281E0C7
:102100008E0F809327028091BB00F0E0EA5FFD4FC5
:10211000808390912702809126029817C8F285E863
:10212000D8CFE091270281E08E0F80932702809123
:10213000BB00F0E0EA5FFD4F8083809129028111AE
:102140005CCF81E08093040284EA8093BC0010920B
:102150002A0226CF85EC8093BC0010922A0280913F
:102160000302803230F4E0910302F0E0ED51FE4FC3
:1021700010826091030270E0E0915B02F0915C02DA
:1021800083EE91E00995109203020ACF1092280283
:1021900034CF1F920F920FB60F9211242F933F93BB
:1021A0004F935F936F937F938F939F93AF93BF935F
:1021B000EF93FF93109285001092840080916C023F
:1021C00090916D02009751F0019790936D0280936A
:1021D0006C02892B19F481E080936B020E94CB067C
:1021E00080919E0190919F01009751F001979093EB
:1021F0009F0180939E01892B19F481E080936E02E8
:10220000FF91EF91BF91AF919F918F917F916F91CE
:102210005F914F913F912F910F900FBE0F901F90A4
:102220001895E3E7F2E01382128288EE93E0A0E0D3
:10223000B0E084839583A683B78326E331E03183BE
:10224000208325EC30E03587248724EC30E0378785
:10225000268720EC30E0318B208B21EC30E0338B73
:10226000228B22EC30E0358B248B26EC30E0378B50
:10227000268B118E128E138E148EE0E1F3E0138202
:10228000128284839583A683B78388E491E0918347
:102290008083A4E5B3E011961C921E9212961C92C4
:1022A0001297EBE3F3E0B183A083138212821582CD
:1022B000148216821782108611861286138614865F
:1022C000158616861786108A118A138A128A158A2D
:1022D000148A168A108E178AA8E2B3E088E0159651
:1022E0008C9315978BE016968C931697E5EAF1E0A0
:1022F000E4911796EC931797E1E9F1E0E4911896D1
:10230000EC93189740E85EE360E070E01D964D9313
:102310005D936D937C935097ECE1F3E0138212820E
:102320008AE591E09183808387E2848380E18187DD
:1023300082E0828713860895789484B5826084BD94
:1023400084B5816084BD85B5826085BD85B58160B9
:1023500085BD80916E00816080936E001092810037
:1023600080918100826080938100809181008160F2
:1023700080938100809180008160809380008091B3
:10238000B10084608093B1008091B000816080933F
:10239000B00080917A00846080937A0080917A0006
:1023A000826080937A0080917A00816080937A00C5
:1023B00080917A00806880937A001092C1000E9418
:1023C000040182E091E090933E0380933D030E94DC
:1023D0008903DC01CB0188589341A109B10980939D
:1023E000450390934603A0934703B093480380931B
:1023F000410390934203A0934303B093440380931B
:10240000490390934A03A0934B03B0934C03E0918C
:102410003B03F0913C0383E792E091838083E0915A
:102420003B03F0913C03128210925303109252032B
:102430000E9489036B017C018091520390915303A8
:10244000019781F00E9489036C197D098E099F090B
:10245000603576448105910528F48BE393E00E9472
:102460003709EACF80915203909153030197B9F64F
:1024700061E08DE00E94F50261E08CE00E94F502CF
:1024800061E08BE00E94F50284E690E090936D029B
:1024900080936C0210926B02F8941092800010925C
:1024A00081008091810084608093810080916F0021
:1024B000826080936F0081E792E09093890080931F
:1024C0008800789410926202109261021092600269
:1024D00010925F020E94C20486E691E090935E0231
:1024E00080935D0287E691E090935C0280935B02AB
:1024F0001092210380912603823018F098E0909387
:1025000021038093240362E370E080E090E00E9466
:102510005603609127038CE193E00E94860568EEE4
:1025200073E080E090E00E94560360E38CE193E06A
:102530000E945E07CBE4D6E4CE010197F1F760E399
:102540008CE193E00E945E072197F1F760E38CE154
:1025500093E00E945E0783E592E00197F1F760E265
:102560008CE193E00E945E0760912103606240E08D
:102570008CE193E00E94770784E08093220340E09F
:102580006CE08CE193E00E94770740E061E08CE131
:1025900093E00E947707CBE3DFE1CE010197F1F7EB
:1025A00082E08093230340E066E08CE193E00E94A8
:1025B000770740E062E08CE193E00E947707219783
:1025C000F1F788E08093270360E08CE193E00E94BC
:1025D00086050E94040162E080912D030E94F502AD
:1025E0000E948903605D77408109910960933103FE
:1025F00070933203809333039093340387E3809383
:102600003A0362E08CE00E94F502C0E0D0E004E60C
:1026100010E092E0E92EF12CCC24C394D12C8BE372
:1026200093E00E94370980916B02813009F0CCC0A1
:102630000E949503882349F080912E038B3028F067
:102640008D3040F085518230D0F160E070E080EC58
:102650009FE71CC06091290370E090E080E00E9439
:10266000F0162DEC3CEC4CEC5DE30E94A5174B0101
:102670005C016091280370E090E080E00E94F01619
:102680009B01AC01C501B4010E94DC15609363029B
:102690007093640280936502909366020E94950392
:1026A000882341F080912E038C3009F4AAC0C8F42D
:1026B0008B3081F160E070E080EC9FE753C0609167
:1026C00028037091290376276727762790E080E01A
:1026D0000E94EE162DEC3CEC4CEC5DE30E94A5173D
:1026E000D5CF8551823030F7B0902A036B2D70E042
:1026F000762F662766277F7780912B03682B90E0E3
:1027000080E00E94EE162DEC3CEC4CEC5DE30E9468
:10271000A51793C060912A0370E090E080E00E94CA
:10272000EE164B015C0170902B0377FE0AC0AC01E2
:102730009B0160E070E080E89FEB0E94DB154B019D
:102740005C01672D6F7070E090E080E00E94F016F1
:102750002DEC3CEC4CEC5DE30E94A517A501940127
:102760000E94DC156093670270936802809369028F
:1027700090936A0280E00E94720882E891E00E94D1
:10278000FA066091670270916802809169029091E7
:102790006A0242E00E94940781E00E94720880E988
:1027A00091E00E94FA066091630270916402809148
:1027B00065029091660242E00E94940710936D02B8
:1027C00000936C0210926B0280916E02813011F4C2
:1027D0000E94BE0680917102909172028130910533
:1027E00009F441C070F1029709F452C0209709F42E
:1027F00016CF0E94D201882309F411CF0E94000055
:102800000ECFB0902A036B2D70E090E080E00E9424
:10281000EE162B013C0160912B036F7070E090E08D
:1028200080E00E94F0162DEC3CEC4CEC5DE30E9445
:10283000A517A30192010E94DC15B7FE93CF905813
:1028400091CF809123018111D1CF60916F0281E0FE
:10285000682760936F028DE00E94C702D0927202D7
:10286000C0927102C3CF80912301882329F0109276
:10287000720210927102BACF80917002813009F019
:10288000B5CF0E94BE06F0927202E0927102AECF06
:1028900080912301882309F4A9CF90E080E00E9471
:1028A000B306E5CF0F931F93CF93DF93823091054B
:1028B00010F482E090E0E0915903F0915A0330E087
:1028C00020E0B0E0A0E0309799F42115310509F43B
:1028D0004AC0281B390B24303105D8F58A819B81E9
:1028E0006115710589F1FB0193838283FE0111C09B
:1028F000408151810281138148175907E0F0481740
:10290000590799F4109761F012960C931297139649
:102910001C933296CF01DF91CF911F910F910895B3
:102920000093590310935A03F4CF2115310551F048
:102930004217530738F0A901DB019A01BD01DF01FD
:10294000F801C1CFEF01F9CF90935A038093590357
:10295000CDCFFE01E20FF31F8193919322503109F5
:1029600039832883D7CF2091570330915803232BE5
:1029700041F4209126013091270130935803209390
:10298000570320912401309125012115310541F48F
:102990002DB73EB74091280150912901241B350BDA
:1029A000E0915703F0915803E217F307A0F42E1BB0
:1029B0003F0B2817390778F0AC014E5F5F4F2417A3
:1029C000350748F04E0F5F1F50935803409357034D
:1029D000819391939FCFF0E0E0E09CCFCF93DF9382
:1029E0000097E9F0FC01329713821282A0915903FB
:1029F000B0915A03ED0130E020E01097A1F420815E
:102A00003181820F931F209157033091580328176B
:102A1000390709F061C0F0935803E0935703DF9141
:102A2000CF910895EA01CE17DF07E8F54A815B816F
:102A30009E0141155105B1F7E901FB83EA834991F4
:102A40005991C40FD51FEC17FD0761F48081918166
:102A50000296840F951FE90199838883828193816F
:102A60009B838A83F0E0E0E012968D919C9113970E
:102A70000097B9F52D913C911197CD010296820FE7
:102A8000931F20915703309158032817390739F6BF
:102A9000309751F510925A0310925903B09358038E
:102AA000A0935703BCCFD383C28340815181840F4D
:102AB000951FC817D90761F44E5F5F4F88819981D0
:102AC000480F591F518340838A819B81938382835E
:102AD0002115310509F0B0CFF0935A03E093590363
:102AE0009ECFFD01DC01C0CF13821282D7CFFC0143
:102AF00088279927E89421912032E9F3293010F0B2
:102B00002E30C8F32B3241F02D3239F4689404C0D2
:102B10000E94A915820F911D219120532A30C0F3E4
:102B20001EF4909581959F4F0895FB01DC0102C032
:102B300005900D9241505040D8F70895BB274A3078
:102B400031F4992322F4BDE2909581959F4F0C9426
:102B5000B2157AE0979F902D879F802D910D1124BB
:102B60000895BB27FB015527AA27880F991FAA1F85
:102B7000A41710F0A41B83955051B9F7A05DAA3398
:102B800008F0A95DA193009779F7B111B193119263
:102B9000CB010C94CB15DC01FC01672F71917723DD
:102BA000E1F7329704C07C916D9370836291AE1708
:102BB000BF07C8F308955058BB27AA270E94F315F2
:102BC0000C9466170E94581738F00E945F1720F087
:102BD00039F49F3F19F426F40C9455170EF4E09540
:102BE000E7FB0C944F17E92F0E94771758F3BA1799
:102BF000620773078407950720F079F4A6F50C9413
:102C000099170EF4E0950B2EBA2FA02D0B01B901E8
:102C100090010C01CA01A0011124FF27591B99F052
:102C2000593F50F4503E68F11A16F040A22F232F5E
:102C3000342F4427585FF3CF469537952795A795AE
:102C4000F0405395C9F77EF41F16BA0B620B730B55
:102C5000840BBAF09150A1F0FF0FBB1F661F771FC6
:102C6000881FC2F70EC0BA0F621F731F841F48F47B
:102C7000879577956795B795F7959E3F08F0B0CF04
:102C80009395880F08F09927EE0F979587950895EB
:102C90000E942B1708F481E008950E9461160C949D
:102CA00066170E945F1758F00E94581740F029F4E9
:102CB0005F3F29F00C944F1751110C949A170C9404
:102CC00055170E94771768F39923B1F3552391F3B1
:102CD000951B550BBB27AA2762177307840738F08B
:102CE0009F5F5F4F220F331F441FAA1FA9F335D0E8
:102CF0000E2E3AF0E0E832D091505040E695001C9C
:102D0000CAF72BD0FE2F29D0660F771F881FBB1F55
:102D1000261737074807AB07B0E809F0BB0B802D33
:102D2000BF01FF2793585F4F3AF09E3F510578F05F
:102D30000C944F170C949A175F3FE4F3983ED4F32A
:102D4000869577956795B795F7959F5FC9F7880F33
:102D5000911D9695879597F90895E1E0660F771F85
:102D6000881FBB1F621773078407BA0720F0621B16
:102D7000730B840BBA0BEE1F88F7E09508950E9441
:102D80007F1788F09F5798F0B92F9927B751B0F067
:102D9000E1F0660F771F881F991F1AF0BA95C9F7DF
:102DA00014C0B13091F00E949917B1E008950C94CD
:102DB0009917672F782F8827B85F39F0B93FCCF380
:102DC000869577956795B395D9F73EF4909580955C
:102DD000709561957F4F8F4F9F4F0895E89409C07C
:102DE00097FB3EF490958095709561957F4F8F4F3E
:102DF0009F4F9923A9F0F92F96E9BB279395F69554
:102E0000879577956795B795F111F8CFFAF4BB0FD1
:102E100011F460FF1BC06F5F7F4F8F4F9F4F16C035
:102E2000882311F096E911C0772321F09EE8872FBF
:102E3000762F05C0662371F096E8862F70E060E07B
:102E40002AF09A95660F771F881FDAF7880F9695F4
:102E5000879597F90895990F0008550FAA0BE0E898
:102E6000FEEF16161706E807F907C0F0121613064C
:102E7000E407F50798F0621B730B840B950B39F48C
:102E80000A2661F0232B242B252B21F408950A26F2
:102E900009F4A140A6958FEF811D811D089597F932
:102EA0009F6780E870E060E008959FEF80EC0895F0
:102EB00000240A9416161706180609060895002419
:102EC0000A9412161306140605060895092E039493
:102ED000000C11F4882352F0BB0F40F4BF2B11F407
:102EE00060FF04C06F5F7F4F8F4F9F4F089557FD66
:102EF0009058440F551F59F05F3F71F04795880F68
:102F000097FB991F61F09F3F79F0879508951216FE
:102F100013061406551FF2CF4695F1DF08C01616AA
:102F200017061806991FF1CF86957105610508945B
:102F30000895E894BB2766277727CB0197F9089572
:102F40000E942B1708F48FEF08950E94B8170C9475
:102F500066170E94581738F00E945F1720F09523DB
:102F600011F00C944F170C94551711240C949A17C8
:102F70000E94771770F3959FC1F3950F50E0551F8E
:102F8000629FF001729FBB27F00DB11D639FAA27BE
:102F9000F00DB11DAA1F649F6627B00DA11D661F0D
:102FA000829F2227B00DA11D621F739FB00DA11D2E
:102FB000621F839FA00D611D221F749F3327A00DE8
:102FC000611D231F849F600D211D822F762F6A2F84
:102FD00011249F5750409AF0F1F088234AF0EE0FE9
:102FE000FF1FBB1F661F771F881F91505040A9F716
:102FF0009E3F510580F00C944F170C949A175F3F39
:10300000E4F3983ED4F3869577956795B795F79551
:10301000E7959F5FC1F7FE2B880F911D96958795C9
:1030200097F908950E942B17880B990B0895AA1BF6
:10303000BB1B51E107C0AA1FBB1FA617B70710F0A3
:10304000A61BB70B881F991F5A95A9F780959095D5
:10305000BC01CD010895A1E21A2EAA1BBB1BFD01E4
:103060000DC0AA1FBB1FEE1FFF1FA217B307E40767
:10307000F50720F0A21BB30BE40BF50B661F771FBF
:10308000881F991F1A9469F760957095809590959F
:103090009B01AC01BD01CF010895EE0FFF1F05900C
:1030A000F491E02D0994FB01DC0102C001900D9226
:1030B00041505040D8F70895FB01DC018D910190FB
:1030C00080190110D9F3990B0895FB01DC014150DF
:1030D000504048F001900D920020C9F701C01D92A8
:1030E00041505040E0F70895F894FFCF01014E455C
:1030F0004749485152694973346F5F4C54325843C1
:10310000467569416A4D4A3376453662703700012B
:1031100000005B0380000000400014005400000029
:1031200000000802680195015502C601A401B8011A
:103130000000000057052A056D06650123051005EE
:103140000105000000008E0768016D06B2066E6181
:103150006E00696E66006F766600696E006F75744A
:103160000070776D007075006477006177005465BA
:103170006D70657261747572653A200048756D698D
:08318000646974793A20000033
:107E0000112484B714BE81FFF0D085E080938100F7
:107E100082E08093C00088E18093C10086E0809377
:107E2000C20080E18093C4008EE0C9D0259A86E02C
:107E300020E33CEF91E0309385002093840096BBD3
:107E4000B09BFECF1D9AA8958150A9F7CC24DD24C4
:107E500088248394B5E0AB2EA1E19A2EF3E0BF2EE7
:107E6000A2D0813461F49FD0082FAFD0023811F036
:107E7000013811F484E001C083E08DD089C08234E0
:107E800011F484E103C0853419F485E0A6D080C0E4
:107E9000853579F488D0E82EFF2485D0082F10E0AE
:107EA000102F00270E291F29000F111F8ED06801E7
:107EB0006FC0863521F484E090D080E0DECF843638
:107EC00009F040C070D06FD0082F6DD080E0C81688
:107ED00080E7D80618F4F601B7BEE895C0E0D1E017
:107EE00062D089930C17E1F7F0E0CF16F0E7DF06D8
:107EF00018F0F601B7BEE89568D007B600FCFDCFD4
:107F0000A601A0E0B1E02C9130E011968C91119780
:107F100090E0982F8827822B932B1296FA010C0160
:107F200087BEE89511244E5F5F4FF1E0A038BF0790
:107F300051F7F601A7BEE89507B600FCFDCF97BE46
:107F4000E89526C08437B1F42ED02DD0F82E2BD052
:107F50003CD0F601EF2C8F010F5F1F4F84911BD097
:107F6000EA94F801C1F70894C11CD11CFA94CF0C13
:107F7000D11C0EC0853739F428D08EE10CD085E9AC
:107F80000AD08FE07ACF813511F488E018D01DD067
:107F900080E101D065CF982F8091C00085FFFCCF94
:107FA0009093C60008958091C00087FFFCCF809118
:107FB000C00084FD01C0A8958091C6000895E0E648
:107FC000F0E098E1908380830895EDDF803219F02E
:107FD00088E0F5DFFFCF84E1DECF1F93182FE3DFCA
:107FE0001150E9F7F2DF1F91089580E0E8DFEE27F6
:047FF000FF270994CA
:027FFE00040479
:00000001FF
